:0409FA008E188F19AB
:1009FE0090000C120800FDACF064054C70057EFFF3
:100A0E007FFF228C1A8D1BD3E51B9400E51A9400F0
:100A1E004034E51B25E0FFE51A33FE74FE2FF58208
:100A2E0074FF3EF583120800FDE51B25E0FFE51A75
:100A3E00338F82F583E5F08DF01208A4E51B151BAC
:100A4E0070C5151A80C1E5188519F0120885900039
:100A5E000CE475F00112083890000C120800FFAE7D
:010A6E00F097
:010A6F002264
:100ACB00AD07AC0690000C120800640545F07005EC
:100ADB007EFF7FFF2290000C12080025E0FFE5F05F
:100AEB00338F82F583EC8DF01208A490000CE47523
:0F0AFB00F00112083890000C120800FFAEF02234
:10097A0090000C12080045F070057EFF7FFF22E40C
:10098A00F518F51990000C12080024FFFFE5F03461
:10099A00FFFEC3E5199FE5189E502FE51925E0FFD4
:1009AA00E518338F82F583A3A3120800FDE5192504
:1009BA00E0FFE518338F82F583E5F08DF01208A485
:1009CA000519E51970BE051880BA90000C74FFF578
:1009DA00F0120838FEE5F025E0FFEE338F82F5834A
:0F09EA00E4F5F01208A490000C120800FFAEF024
:0109F90022DB
:100B490090000C12080045F070057EFF7FFF22908F
:100B5900000C74FFF5F0120838FEE5F025E0FFEE11
:100B6900338F82F583E4F5F01208A490000C120883
:050B790000FFAEF022B8
:0A0BAD0090000C120800FFAEF022C9
:100B7E0090000C12080045F070057EFF7FFF22905A
:100B8E00000A74FFF5F012083890000C120800FFEE
:030B9E00AEF02294
:100B0A0090000C12080024FFFFE5F034FFFE90006D
:100B1A000A1208006F7003EE65F0600A90000C126A
:100B2A00080045F070057EFF7FFF2290000AE475F9
:0F0B3A00F00112083890000C120800FFAEF022F4
:100A7000EE7053EFB40A00504D900A80F8282873A6
:100A8000020A9E020AA2020AA6020AAA020AAE02EA
:100A90000AB2020AB6020ABA020ABE020AC27DC03D
:100AA00080267DF980227DA4801E7DB0801A7D99EC
:100AB00080167D9280127D82800E7DF8800A7D8076
:0A0AC00080067D908002E4FDAF0582
:010ACA002209
:1008E700E4F516F517F514F515FB7A00790A7F0379
:1008F700FE1209FA7FAA7E00120ACB120B497F016A
:100907007E001209FA7F057E00120ACB7F077E0060
:10091700120ACB7F097E00120ACB12097A7F017E69
:10092700001209FA120B0A120B0A120B0A120B7E9B
:10093700E4F590E4F508F5097B007A00790A120BD3
:10094700ADC3E5099FE5089E50E9E50925E0240ABE
:10095700F8E6FE08E6FF120A708F90E4FFFE0FBF6D
:1009670000010EBE4EF8BF20F50509E50970C9055F
:030977000880C530
:03000000020BA14F
:0C0BA100787FE4F6D8FD75811B0208E7A0
:10080000BB0110E58229F582E5833AF583E0F5F036
:10081000A3E0225009E92582F886F008E622BBFE13
:100820000AE92582F8E2F5F008E222E5832AF58359
:08083000E993F5F0A3E993221E
:10083800BB010DC58229C582C5833AC5830208D18B
:100848005011C58229F808E5F026F618F5F0E5827A
:1008580036F622BBFE11C58229F808E225F0F5F02C
:10086800F218E23582F222F8E58229F582E5832A38
:0D087800F58374019325F0F5F0E493382228
:10088500BB010A89828A83F0E5F0A3F0225006F7BE
:0F08950009A7F01922BBFE06F3E5F009F31922BB
:1008A400F8BB0111E58229F582E5833AF583E8F086
:1008B400E5F0A3F0225009E92582C8F608A6F02243
:0D08C400BBFE09E92582C8F2E5F008F2222A
:1008D100C5F0F8A3E028F0C5F0F8E58215827002B2
:0608E1001583E038F0224F
:00000001FF
