:100B9700040A00000000100E000000000000000022
:0C0BA70000000000000000000208000038
:100C1000758901758CB8758A01D28C308DFDC28DB5
:030C2000C28C2261
:100B3E00AD07E4FCED75F032A4FFECC39FE5F06465
:0D0B4E0080F87480985006120C100C80E79F
:010B5B002277
:1008000075212DD284D285D286D280D281D282D255
:1008100083C280208405752123800E2085057521E3
:1008200030800620860375212AD280C2812084056B
:10083000752139800E2085057521388006208603B4
:10084000752137D281C282208405752136800E2021
:1008500085057521358006208603752134D282C234
:1008600083208405752133800E2085057521328013
:1008700006208603752131D283E521642D60187529
:1008800025007526007527217B007A00790A120A57
:0708900030120C10120C10D5
:01089700223E
:100AFF0030981C8599217525007526007527217B57
:0F0B0F00007A00790E120A30C298852199C29996
:010B1E0022B4
:100AB800D292C2921D120ACF92971D120ACF929615
:070AC8001D120ACF92951DDB
:0F0ACF00AE05A806EF088003A2E713D8FB132299
:100BCD00C293C297C296C295C294D292C292D29546
:070BDD00D292C292020C103B
:100B1F00C293C297C296C295C294D292C292D296F3
:0F0B2F00A2009295A2019294D292C292020C104F
:100ADE00C297C296C295C294D292C292D297A200E7
:100AEE009296A2019295A2029294D292C292020C76
:010AFE0010E7
:100B7A00C293C297C296C295D294D292C292A2034B
:0D0B8A009297A2049296D292C292020C1091
:100B5C00C297C296D295C294C293D292C292120CF0
:0E0B6C0010D292C292D297D292C292020C1074
:100BE400AC077D07120ABD9294D293120AB892946C
:070BF400D292C292020C1024
:060A88008B218A22892364
:100A8E00E4F524F525AB21AA22A923852582852408
:100A9E00831209D8FFFD3395E04D600D120BE4056E
:090AAE0025E52570E0052480DC3B
:010AB700221C
:100BB400AC07C293D2977D06120AC39294120AB864
:090BC4009294D292C292020C102C
:10092400EE7053EFB40A00504D900934F828287340
:1009340002095202095602095A02095E02096202B8
:10094400096602096A02096E0209720209767DC00B
:1009540080267DF980227DA4801E7DB0801A7D9939
:1009640080167D9280127D82800E7DF8800A7D80C3
:0A09740080067D908002E4FDAF05CF
:01097E002256
:10097F00120B5CD200C201120B1FD200C201C202C5
:10098F00120ADE759850438920758DFDD28ED2994B
:10099F00120AFF1208007B007A00790A120BFBEF94
:1009AF0064034E70EBE509450870E5FB7A00790AA0
:1009BF00120A887508007509017F40120BB47B007D
:0909CF007A00790E120A8880C733
:030000000208985B
:0C089800787FE4F6D8FD75812A0208DFA5
:1009D800BB010CE58229F582E5833AF583E02250D4
:1009E80006E92582F8E622BBFE06E92582F8E2221E
:0D09F800E58229F582E5833AF583E4932238
:100A30008B228A2389248B288A29892AAB220524A0
:100A4000E524AA237002052314F9120A0570ED7437
:100A5000FF2524F52474FF3523F523AB250527E571
:100A600027AA267002052614F9120A05FFAB2205F3
:100A700024E524AA237002052314F9EF120A1E703C
:080A8000DAAB28AA29A92A22F9
:100BFB00E4FFFE120A05600C0FEF70010E09E9709D
:050C0B00F20A80EF2257
:1008A40002097FE493A3F8E493A34003F68001F2E2
:1008B40008DFF48029E493A3F85407240CC8C33355
:1008C400C4540F4420C8834004F456800146F6DF24
:1008D400E4800B0102040810204080900B97E47E12
:1008E400019360BCA3FF543F30E509541FFEE49319
:1008F400A360010ECF54C025E060A840B8E493A3E0
:10090400FAE493A3F8E493A3C8C582C8CAC583CA0A
:10091400F0A3C8C582C8CAC583CADFE9DEE780BEC2
:010BB3000041
:100A0500BB010689828A83E0225002E722BBFE02EF
:090A1500E32289828A83E4932222
:100A1E00BB010689828A83F0225002F722BBFE01B7
:020A2E00F322B1
:00000001FF
