:0F0C78000A08303132333435363738390112003B
:100C4600C287759034E4FFFE0FBF00010EEF6414F7
:080C56004E70F5E4F590D28721
:010C5E002273
:100C5F00C28775909AE4FFFE0FBF00010EEF641478
:080C6F004E70F5E4F590D28708
:010C7700225A
:10080000EF24D0B40A0040030209D390081975F010
:1008100003A4C58325F0C583730209B40208370217
:1008200008650208930208C10208EF02091D0209C7
:100830004B020970020992120C46E512700302097C
:10084000D3120C5FE51270030209D3120C5FE5129C
:1008500070030209D3120C5FE51270030209D31270
:100860000C5FE51222120C46E51270030209D31246
:100870000C46E51270030209D3120C5FE5127003F7
:100880000209D3120C5FE51270030209D3120C5F48
:10089000E51222120C46E51270030209D3120C462F
:1008A000E51270030209D3120C46E5127003020927
:1008B000D3120C5FE51270030209D3120C5FE5122C
:1008C00022120C46E51270030209D3120C46E512FF
:1008D00070030209D3120C46E51270030209D31209
:1008E0000C46E51270030209D3120C5FE5122212C6
:1008F0000C46E51270030209D3120C46E512700390
:100900000209D3120C46E51270030209D3120C46F9
:10091000E51270030209D3120C46E51222120C5F95
:10092000E51270030209D3120C46E51270030209A6
:10093000D3120C46E51270030209D3120C46E512DD
:1009400070030209D3120C46E51222120C5FE51265
:1009500070030209D3120C5FE5126077120C46E5B2
:10096000126070120C46E5126069120C46E5122204
:10097000120C5FE512605C120C5FE5126055120C00
:100980005FE512604E120C46E5126047120C46E518
:100990001222120C5FE512603A120C5FE51260330E
:1009A000120C5FE512602C120C5FE5126025120C30
:1009B00046E51222120C5FE5126018120C5FE51278
:1009C0006011120C5FE512600A120C5FE512600301
:0409D000120C5F2284
:100B3500309842AF99EF64107008751201C298C2DF
:100B45009922E4FFEFC3940A7480948050277408B7
:100B55002FF8E6B5991C90000A120A60F582758394
:100B650000E599120AC0C298C29990000A74010260
:050B75000A8D0F80CF86
:010B7A002258
:100AE2008B1F8A208921E5126401704690000B1247
:100AF2000A60F582758300120A60FF120BFEAB1FBB
:100B0200AA20A92190000B7401120A8D90000A12EA
:100B12000A60FF90000B120A60B50716E4F512ABEB
:100B22001FAA20A92190000A120AC090000BE41209
:030B32000AC022D4
:0B0C8800309808AF99C2988F99C2996C
:010C9300223E
:100B7B00E5126401703290000B120A60F5827583E6
:100B8B0000120A60FF12080090000A120A60FF9020
:100B9B00000B120A60B50710E4F51290000A120A56
:100BAB00C090000BE4120AC0E512640170079000BC
:060BBB000B04120A8D225A
:03002300020BC10C
:100BC100C0E0C083C082C0D075D000C000C001C0E9
:100BD10002C003C007E51264017006F512F51DF5A8
:100BE1001E7B007A007913120B35D007D003D00297
:0D0BF100D001D000D0D0D082D083D0E0322F
:100C2500E4F51DF51E759850438920758DFDD28E0E
:100C3500D299D2AFD2AC7B007A007913120B7B80AC
:010C4500F5B9
:030000000209D41E
:0C09D400787FE4F6D8FD758121020A1B33
:100A6000BB010CE58229F582E5833AF583E022504B
:100A700006E92582F8E622BBFE06E92582F8E22295
:0D0A8000E58229F582E5833AF583E49322AF
:100A8D00BB010FF8E58229F582E5833AF583E0286D
:100A9D00F0225009C58229F8E58226F622BBFE090F
:100AAD00C58229F8E22582F222F8EA2583F583E949
:030ABD0093282259
:100AC000F8BB010DE58229F582E5833AF583E8F06C
:100AD000225006E92582C8F622BBFE05E92582C818
:020AE000F22200
:100BFE00EFB40A07740D120C09740A309811A899F3
:100C0E00B8130CC2983098FDA899C298B811F63056
:070C1E0099FDC299F599222E
:1009E000020C25E493A3F8E493A34003F68001F2FC
:1009F00008DFF48029E493A3F85407240CC8C33318
:100A0000C4540F4420C8834004F456800146F6DFE6
:100A1000E4800B0102040810204080900C78E47EF2
:100A2000019360BCA3FF543F30E509541FFEE493DB
:100A3000A360010ECF54C025E060A840B8E493A3A2
:100A4000FAE493A3F8E493A3C8C582C8CAC583CACD
:100A5000F0A3C8C582C8CAC583CADFE9DEE780BE85
:010C8700006C
:00000001FF
